{
  "_format": "hh-sol-artifact-1",
  "contractName": "MarketPlace",
  "sourceName": "src/SmartContracts/contracts/MarketPlace.sol",
  "abi": [
    {
      "inputs": [
        {
          "internalType": "uint256",
          "name": "_feePercent",
          "type": "uint256"
        }
      ],
      "stateMutability": "nonpayable",
      "type": "constructor"
    },
    {
      "anonymous": false,
      "inputs": [
        {
          "indexed": false,
          "internalType": "uint256",
          "name": "itemID",
          "type": "uint256"
        },
        {
          "indexed": false,
          "internalType": "uint256",
          "name": "tokenID",
          "type": "uint256"
        },
        {
          "indexed": false,
          "internalType": "uint256",
          "name": "price",
          "type": "uint256"
        },
        {
          "indexed": true,
          "internalType": "address",
          "name": "NFT",
          "type": "address"
        },
        {
          "indexed": true,
          "internalType": "address",
          "name": "seller",
          "type": "address"
        }
      ],
      "name": "token_is_Listed",
      "type": "event"
    },
    {
      "anonymous": false,
      "inputs": [
        {
          "indexed": false,
          "internalType": "uint256",
          "name": "itemID",
          "type": "uint256"
        },
        {
          "indexed": false,
          "internalType": "uint256",
          "name": "tokenID",
          "type": "uint256"
        },
        {
          "indexed": false,
          "internalType": "uint256",
          "name": "price",
          "type": "uint256"
        },
        {
          "indexed": true,
          "internalType": "address",
          "name": "NFT",
          "type": "address"
        },
        {
          "indexed": true,
          "internalType": "address",
          "name": "seller",
          "type": "address"
        },
        {
          "indexed": true,
          "internalType": "address",
          "name": "buyer",
          "type": "address"
        }
      ],
      "name": "token_sold",
      "type": "event"
    },
    {
      "inputs": [
        {
          "internalType": "uint256",
          "name": "_ItemID",
          "type": "uint256"
        }
      ],
      "name": "BuyItem",
      "outputs": [],
      "stateMutability": "payable",
      "type": "function"
    },
    {
      "inputs": [
        {
          "internalType": "uint256",
          "name": "",
          "type": "uint256"
        }
      ],
      "name": "Items",
      "outputs": [
        {
          "internalType": "uint256",
          "name": "itemID",
          "type": "uint256"
        },
        {
          "internalType": "contract IERC721",
          "name": "NFT",
          "type": "address"
        },
        {
          "internalType": "uint256",
          "name": "tokenID",
          "type": "uint256"
        },
        {
          "internalType": "uint256",
          "name": "price",
          "type": "uint256"
        },
        {
          "internalType": "bool",
          "name": "sold",
          "type": "bool"
        },
        {
          "internalType": "address payable",
          "name": "seller",
          "type": "address"
        }
      ],
      "stateMutability": "view",
      "type": "function"
    },
    {
      "inputs": [
        {
          "internalType": "uint256",
          "name": "_price",
          "type": "uint256"
        },
        {
          "internalType": "contract IERC721",
          "name": "_NFT",
          "type": "address"
        },
        {
          "internalType": "uint256",
          "name": "_tokenID",
          "type": "uint256"
        }
      ],
      "name": "ListItem",
      "outputs": [],
      "stateMutability": "nonpayable",
      "type": "function"
    },
    {
      "inputs": [],
      "name": "token_Listed_count",
      "outputs": [
        {
          "internalType": "uint256",
          "name": "",
          "type": "uint256"
        }
      ],
      "stateMutability": "view",
      "type": "function"
    }
  ],
  "bytecode": "0x608060405234801561001057600080fd5b50604051610db0380380610db08339818101604052810190610032919061009d565b60016000819055508060018190555033600260006101000a81548173ffffffffffffffffffffffffffffffffffffffff021916908373ffffffffffffffffffffffffffffffffffffffff160217905550506100e7565b600081519050610097816100d0565b92915050565b6000602082840312156100af57600080fd5b60006100bd84828501610088565b91505092915050565b6000819050919050565b6100d9816100c6565b81146100e457600080fd5b50565b610cba806100f66000396000f3fe60806040526004361061003f5760003560e01c806317b47cc4146100445780634c30ebe8146100865780635f74d59d146100b1578063884c6440146100da575b600080fd5b34801561005057600080fd5b5061006b600480360381019061006691906107ba565b6100f6565b60405161007d969594939291906109db565b60405180910390f35b34801561009257600080fd5b5061009b61017f565b6040516100a891906109c0565b60405180910390f35b3480156100bd57600080fd5b506100d860048036038101906100d391906107e3565b610185565b005b6100f460048036038101906100ef91906107ba565b610457565b005b60046020528060005260406000206000915090508060000154908060010160009054906101000a900473ffffffffffffffffffffffffffffffffffffffff16908060020154908060030154908060040160009054906101000a900460ff16908060040160019054906101000a900473ffffffffffffffffffffffffffffffffffffffff16905086565b60035481565b600260005414156101cb576040517f08c379a00000000000000000000000000000000000000000000000000000000081526004016101c290610980565b60405180910390fd5b600260008190555060008311610216576040517f08c379a000000000000000000000000000000000000000000000000000000000815260040161020d90610940565b60405180910390fd5b6003600081548092919061022990610b14565b91905055508173ffffffffffffffffffffffffffffffffffffffff166323b872dd3330846040518463ffffffff1660e01b815260040161026b93929190610909565b600060405180830381600087803b15801561028557600080fd5b505af1158015610299573d6000803e3d6000fd5b505050506040518060c0016040528060035481526020018373ffffffffffffffffffffffffffffffffffffffff1681526020018281526020018481526020016000151581526020013373ffffffffffffffffffffffffffffffffffffffff168152506004600060035481526020019081526020016000206000820151816000015560208201518160010160006101000a81548173ffffffffffffffffffffffffffffffffffffffff021916908373ffffffffffffffffffffffffffffffffffffffff160217905550604082015181600201556060820151816003015560808201518160040160006101000a81548160ff02191690831515021790555060a08201518160040160016101000a81548173ffffffffffffffffffffffffffffffffffffffff021916908373ffffffffffffffffffffffffffffffffffffffff1602179055509050503373ffffffffffffffffffffffffffffffffffffffff168273ffffffffffffffffffffffffffffffffffffffff167f979d2c880ff51f31bfcc9db5344a8b87eb6753000aff1cea57344faa7a91cb99600354848760405161044293929190610a3c565b60405180910390a36001600081905550505050565b600060046000838152602001908152602001600020905060008211801561048057506003548211155b6104bf576040517f08c379a00000000000000000000000000000000000000000000000000000000081526004016104b690610960565b60405180910390fd5b8060040160009054906101000a900460ff1615610511576040517f08c379a0000000000000000000000000000000000000000000000000000000008152600401610508906109a0565b60405180910390fd5b8060040160019054906101000a900473ffffffffffffffffffffffffffffffffffffffff1673ffffffffffffffffffffffffffffffffffffffff166108fc82600301549081150290604051600060405180830381858888f1935050505015801561057f573d6000803e3d6000fd5b5060006004600084815260200190815260200160002060010160009054906101000a900473ffffffffffffffffffffffffffffffffffffffff1690508073ffffffffffffffffffffffffffffffffffffffff166323b872dd303360046000888152602001908152602001600020600201546040518463ffffffff1660e01b815260040161060e93929190610909565b600060405180830381600087803b15801561062857600080fd5b505af115801561063c573d6000803e3d6000fd5b5050505060018260040160006101000a81548160ff0219169083151502179055503373ffffffffffffffffffffffffffffffffffffffff166004600085815260200190815260200160002060040160019054906101000a900473ffffffffffffffffffffffffffffffffffffffff1673ffffffffffffffffffffffffffffffffffffffff166004600086815260200190815260200160002060010160009054906101000a900473ffffffffffffffffffffffffffffffffffffffff1673ffffffffffffffffffffffffffffffffffffffff167f226f1b603113b59704ed097d526020c53bf77c3663e5f2025a5b4bcaebce4e2260046000888152602001908152602001600020600001546004600089815260200190815260200160002060020154600460008a81526020019081526020016000206003015460405161078393929190610a3c565b60405180910390a4505050565b60008135905061079f81610c56565b92915050565b6000813590506107b481610c6d565b92915050565b6000602082840312156107cc57600080fd5b60006107da848285016107a5565b91505092915050565b6000806000606084860312156107f857600080fd5b6000610806868287016107a5565b935050602061081786828701610790565b9250506040610828868287016107a5565b9150509250925092565b61083b81610a96565b82525050565b61084a81610a84565b82525050565b61085981610aa8565b82525050565b61086881610af0565b82525050565b600061087b602183610a73565b915061088682610b8c565b604082019050919050565b600061089e601283610a73565b91506108a982610bdb565b602082019050919050565b60006108c1601f83610a73565b91506108cc82610c04565b602082019050919050565b60006108e4601183610a73565b91506108ef82610c2d565b602082019050919050565b61090381610ae6565b82525050565b600060608201905061091e6000830186610841565b61092b6020830185610841565b61093860408301846108fa565b949350505050565b600060208201905081810360008301526109598161086e565b9050919050565b6000602082019050818103600083015261097981610891565b9050919050565b60006020820190508181036000830152610999816108b4565b9050919050565b600060208201905081810360008301526109b9816108d7565b9050919050565b60006020820190506109d560008301846108fa565b92915050565b600060c0820190506109f060008301896108fa565b6109fd602083018861085f565b610a0a60408301876108fa565b610a1760608301866108fa565b610a246080830185610850565b610a3160a0830184610832565b979650505050505050565b6000606082019050610a5160008301866108fa565b610a5e60208301856108fa565b610a6b60408301846108fa565b949350505050565b600082825260208201905092915050565b6000610a8f82610ac6565b9050919050565b6000610aa182610ac6565b9050919050565b60008115159050919050565b6000610abf82610a84565b9050919050565b600073ffffffffffffffffffffffffffffffffffffffff82169050919050565b6000819050919050565b6000610afb82610b02565b9050919050565b6000610b0d82610ac6565b9050919050565b6000610b1f82610ae6565b91507fffffffffffffffffffffffffffffffffffffffffffffffffffffffffffffffff821415610b5257610b51610b5d565b5b600182019050919050565b7f4e487b7100000000000000000000000000000000000000000000000000000000600052601160045260246000fd5b7f70726963652073686f756c642062652067726561746572207468616e207a657260008201527f6f00000000000000000000000000000000000000000000000000000000000000602082015250565b7f456e7465722076616c6964206974656d49440000000000000000000000000000600082015250565b7f5265656e7472616e637947756172643a207265656e7472616e742063616c6c00600082015250565b7f4974656d20616c726561647920736f6c64000000000000000000000000000000600082015250565b610c5f81610ab4565b8114610c6a57600080fd5b50565b610c7681610ae6565b8114610c8157600080fd5b5056fea26469706673582212209119535d7a367bf96df055f15e7d9e314805eb41526d2678e8c561928584611b64736f6c63430008040033",
  "linkReferences": {},
  "deployedLinkReferences": {}
}