{
  "_format": "hh-sol-artifact-1",
  "contractName": "MarketPlace",
  "sourceName": "src/SmartContracts/contracts/Marketspace.sol",
  "abi": [
    {
      "inputs": [
        {
          "internalType": "uint256",
          "name": "_feePercent",
          "type": "uint256"
        }
      ],
      "stateMutability": "nonpayable",
      "type": "constructor"
    },
    {
      "anonymous": false,
      "inputs": [
        {
          "indexed": false,
          "internalType": "uint256",
          "name": "itemID",
          "type": "uint256"
        },
        {
          "indexed": false,
          "internalType": "uint256",
          "name": "tokenID",
          "type": "uint256"
        },
        {
          "indexed": false,
          "internalType": "uint256",
          "name": "price",
          "type": "uint256"
        },
        {
          "indexed": true,
          "internalType": "address",
          "name": "NFT",
          "type": "address"
        },
        {
          "indexed": true,
          "internalType": "address",
          "name": "seller",
          "type": "address"
        }
      ],
      "name": "token_is_Listed",
      "type": "event"
    },
    {
      "anonymous": false,
      "inputs": [
        {
          "indexed": false,
          "internalType": "uint256",
          "name": "itemID",
          "type": "uint256"
        },
        {
          "indexed": false,
          "internalType": "uint256",
          "name": "tokenID",
          "type": "uint256"
        },
        {
          "indexed": false,
          "internalType": "uint256",
          "name": "price",
          "type": "uint256"
        },
        {
          "indexed": true,
          "internalType": "address",
          "name": "NFT",
          "type": "address"
        },
        {
          "indexed": true,
          "internalType": "address",
          "name": "seller",
          "type": "address"
        },
        {
          "indexed": true,
          "internalType": "address",
          "name": "buyer",
          "type": "address"
        }
      ],
      "name": "token_sold",
      "type": "event"
    },
    {
      "inputs": [
        {
          "internalType": "uint256",
          "name": "_ItemID",
          "type": "uint256"
        }
      ],
      "name": "BuyItem",
      "outputs": [],
      "stateMutability": "payable",
      "type": "function"
    },
    {
      "inputs": [
        {
          "internalType": "uint256",
          "name": "",
          "type": "uint256"
        }
      ],
      "name": "Items",
      "outputs": [
        {
          "internalType": "uint256",
          "name": "itemID",
          "type": "uint256"
        },
        {
          "internalType": "contract ERC721",
          "name": "NFT",
          "type": "address"
        },
        {
          "internalType": "uint256",
          "name": "tokenID",
          "type": "uint256"
        },
        {
          "internalType": "uint256",
          "name": "price",
          "type": "uint256"
        },
        {
          "internalType": "bool",
          "name": "sold",
          "type": "bool"
        },
        {
          "internalType": "address payable",
          "name": "seller",
          "type": "address"
        }
      ],
      "stateMutability": "view",
      "type": "function"
    },
    {
      "inputs": [
        {
          "internalType": "uint256",
          "name": "_price",
          "type": "uint256"
        },
        {
          "internalType": "contract ERC721",
          "name": "_NFT",
          "type": "address"
        },
        {
          "internalType": "uint256",
          "name": "_tokenID",
          "type": "uint256"
        }
      ],
      "name": "ListItem",
      "outputs": [],
      "stateMutability": "nonpayable",
      "type": "function"
    }
  ],
  "bytecode": "0x608060405234801561001057600080fd5b5060405161101e38038061101e833981810160405281019061003291906100c3565b60016000819055508060018190555033600260006101000a81548173ffffffffffffffffffffffffffffffffffffffff021916908373ffffffffffffffffffffffffffffffffffffffff160217905550506100f0565b600080fd5b6000819050919050565b6100a08161008d565b81146100ab57600080fd5b50565b6000815190506100bd81610097565b92915050565b6000602082840312156100d9576100d8610088565b5b60006100e7848285016100ae565b91505092915050565b610f1f806100ff6000396000f3fe6080604052600436106100345760003560e01c806317b47cc4146100395780635f74d59d1461007b578063884c6440146100a4575b600080fd5b34801561004557600080fd5b50610060600480360381019061005b9190610877565b6100c0565b6040516100729695949392919061096e565b60405180910390f35b34801561008757600080fd5b506100a2600480360381019061009d9190610a1f565b610149565b005b6100be60048036038101906100b99190610877565b61041a565b005b60046020528060005260406000206000915090508060000154908060010160009054906101000a900473ffffffffffffffffffffffffffffffffffffffff16908060020154908060030154908060040160009054906101000a900460ff16908060040160019054906101000a900473ffffffffffffffffffffffffffffffffffffffff16905086565b60026000540361018e576040517f08c379a000000000000000000000000000000000000000000000000000000000815260040161018590610acf565b60405180910390fd5b6002600081905550600083116101d9576040517f08c379a00000000000000000000000000000000000000000000000000000000081526004016101d090610b61565b60405180910390fd5b600360008154809291906101ec90610bb0565b91905055508173ffffffffffffffffffffffffffffffffffffffff166323b872dd3330846040518463ffffffff1660e01b815260040161022e93929190610c07565b600060405180830381600087803b15801561024857600080fd5b505af115801561025c573d6000803e3d6000fd5b505050506040518060c0016040528060035481526020018373ffffffffffffffffffffffffffffffffffffffff1681526020018281526020018481526020016000151581526020013373ffffffffffffffffffffffffffffffffffffffff168152506004600060035481526020019081526020016000206000820151816000015560208201518160010160006101000a81548173ffffffffffffffffffffffffffffffffffffffff021916908373ffffffffffffffffffffffffffffffffffffffff160217905550604082015181600201556060820151816003015560808201518160040160006101000a81548160ff02191690831515021790555060a08201518160040160016101000a81548173ffffffffffffffffffffffffffffffffffffffff021916908373ffffffffffffffffffffffffffffffffffffffff1602179055509050503373ffffffffffffffffffffffffffffffffffffffff168273ffffffffffffffffffffffffffffffffffffffff167f979d2c880ff51f31bfcc9db5344a8b87eb6753000aff1cea57344faa7a91cb99600354848760405161040593929190610c3e565b60405180910390a36001600081905550505050565b60006004600083815260200190815260200160002090506000606460015460646104449190610c75565b83600301546104539190610ca9565b61045d9190610d1a565b90508034116104a1576040517f08c379a000000000000000000000000000000000000000000000000000000000815260040161049890610dbd565b60405180910390fd5b6000831180156104b357506003548311155b6104f2576040517f08c379a00000000000000000000000000000000000000000000000000000000081526004016104e990610e29565b60405180910390fd5b8160040160009054906101000a900460ff1615610544576040517f08c379a000000000000000000000000000000000000000000000000000000000815260040161053b90610e95565b60405180910390fd5b8160040160019054906101000a900473ffffffffffffffffffffffffffffffffffffffff1673ffffffffffffffffffffffffffffffffffffffff166108fc83600301549081150290604051600060405180830381858888f193505050501580156105b2573d6000803e3d6000fd5b50600260009054906101000a900473ffffffffffffffffffffffffffffffffffffffff1673ffffffffffffffffffffffffffffffffffffffff166108fc8360030154836105ff9190610eb5565b9081150290604051600060405180830381858888f1935050505015801561062a573d6000803e3d6000fd5b5060006004600085815260200190815260200160002060010160009054906101000a900473ffffffffffffffffffffffffffffffffffffffff1690508073ffffffffffffffffffffffffffffffffffffffff166323b872dd303360046000898152602001908152602001600020600201546040518463ffffffff1660e01b81526004016106b993929190610c07565b600060405180830381600087803b1580156106d357600080fd5b505af11580156106e7573d6000803e3d6000fd5b5050505060018360040160006101000a81548160ff0219169083151502179055503373ffffffffffffffffffffffffffffffffffffffff166004600086815260200190815260200160002060040160019054906101000a900473ffffffffffffffffffffffffffffffffffffffff1673ffffffffffffffffffffffffffffffffffffffff166004600087815260200190815260200160002060010160009054906101000a900473ffffffffffffffffffffffffffffffffffffffff1673ffffffffffffffffffffffffffffffffffffffff167f226f1b603113b59704ed097d526020c53bf77c3663e5f2025a5b4bcaebce4e226004600089815260200190815260200160002060000154600460008a815260200190815260200160002060020154600460008b81526020019081526020016000206003015460405161082e93929190610c3e565b60405180910390a450505050565b600080fd5b6000819050919050565b61085481610841565b811461085f57600080fd5b50565b6000813590506108718161084b565b92915050565b60006020828403121561088d5761088c61083c565b5b600061089b84828501610862565b91505092915050565b6108ad81610841565b82525050565b600073ffffffffffffffffffffffffffffffffffffffff82169050919050565b6000819050919050565b60006108f86108f36108ee846108b3565b6108d3565b6108b3565b9050919050565b600061090a826108dd565b9050919050565b600061091c826108ff565b9050919050565b61092c81610911565b82525050565b60008115159050919050565b61094781610932565b82525050565b6000610958826108b3565b9050919050565b6109688161094d565b82525050565b600060c08201905061098360008301896108a4565b6109906020830188610923565b61099d60408301876108a4565b6109aa60608301866108a4565b6109b7608083018561093e565b6109c460a083018461095f565b979650505050505050565b60006109da826108b3565b9050919050565b60006109ec826109cf565b9050919050565b6109fc816109e1565b8114610a0757600080fd5b50565b600081359050610a19816109f3565b92915050565b600080600060608486031215610a3857610a3761083c565b5b6000610a4686828701610862565b9350506020610a5786828701610a0a565b9250506040610a6886828701610862565b9150509250925092565b600082825260208201905092915050565b7f5265656e7472616e637947756172643a207265656e7472616e742063616c6c00600082015250565b6000610ab9601f83610a72565b9150610ac482610a83565b602082019050919050565b60006020820190508181036000830152610ae881610aac565b9050919050565b7f70726963652073686f756c642062652067726561746572207468616e207a657260008201527f6f00000000000000000000000000000000000000000000000000000000000000602082015250565b6000610b4b602183610a72565b9150610b5682610aef565b604082019050919050565b60006020820190508181036000830152610b7a81610b3e565b9050919050565b7f4e487b7100000000000000000000000000000000000000000000000000000000600052601160045260246000fd5b6000610bbb82610841565b91507fffffffffffffffffffffffffffffffffffffffffffffffffffffffffffffffff8203610bed57610bec610b81565b5b600182019050919050565b610c01816109cf565b82525050565b6000606082019050610c1c6000830186610bf8565b610c296020830185610bf8565b610c3660408301846108a4565b949350505050565b6000606082019050610c5360008301866108a4565b610c6060208301856108a4565b610c6d60408301846108a4565b949350505050565b6000610c8082610841565b9150610c8b83610841565b9250828201905080821115610ca357610ca2610b81565b5b92915050565b6000610cb482610841565b9150610cbf83610841565b9250828202610ccd81610841565b91508282048414831517610ce457610ce3610b81565b5b5092915050565b7f4e487b7100000000000000000000000000000000000000000000000000000000600052601260045260246000fd5b6000610d2582610841565b9150610d3083610841565b925082610d4057610d3f610ceb565b5b828204905092915050565b7f56616c7565206973206c657373207468656e20746865206c697374656420707260008201527f6963652c2074727920616761696e000000000000000000000000000000000000602082015250565b6000610da7602e83610a72565b9150610db282610d4b565b604082019050919050565b60006020820190508181036000830152610dd681610d9a565b9050919050565b7f456e7465722076616c6964206974656d49440000000000000000000000000000600082015250565b6000610e13601283610a72565b9150610e1e82610ddd565b602082019050919050565b60006020820190508181036000830152610e4281610e06565b9050919050565b7f4974656d20616c726561647920736f6c64000000000000000000000000000000600082015250565b6000610e7f601183610a72565b9150610e8a82610e49565b602082019050919050565b60006020820190508181036000830152610eae81610e72565b9050919050565b6000610ec082610841565b9150610ecb83610841565b9250828203905081811115610ee357610ee2610b81565b5b9291505056fea26469706673582212202a5246d21c0f803c5b52f5143b51a127e7e9e7f60e7330541d452e89527cc91f64736f6c63430008130033",
  "linkReferences": {},
  "deployedLinkReferences": {}
}